{
  "_format": "hh-sol-artifact-1",
  "contractName": "DocumentStorage",
  "sourceName": "contracts/DocumentStorage.sol",
  "abi": [
    {
      "anonymous": false,
      "inputs": [
        {
          "indexed": true,
          "internalType": "address",
          "name": "user",
          "type": "address"
        },
        {
          "indexed": false,
          "internalType": "string",
          "name": "ipfsHash",
          "type": "string"
        },
        {
          "indexed": false,
          "internalType": "string",
          "name": "fileName",
          "type": "string"
        },
        {
          "indexed": false,
          "internalType": "bool",
          "name": "isPrivate",
          "type": "bool"
        },
        {
          "indexed": false,
          "internalType": "uint256",
          "name": "timestamp",
          "type": "uint256"
        }
      ],
      "name": "DocumentUploaded",
      "type": "event"
    },
    {
      "inputs": [],
      "name": "getUserDocuments",
      "outputs": [
        {
          "internalType": "string[]",
          "name": "ipfsHashes",
          "type": "string[]"
        },
        {
          "internalType": "string[]",
          "name": "fileNames",
          "type": "string[]"
        },
        {
          "internalType": "bool[]",
          "name": "privacyFlags",
          "type": "bool[]"
        },
        {
          "internalType": "uint256[]",
          "name": "timestamps",
          "type": "uint256[]"
        },
        {
          "internalType": "string[]",
          "name": "fileTypes",
          "type": "string[]"
        },
        {
          "internalType": "uint256[]",
          "name": "fileSizes",
          "type": "uint256[]"
        }
      ],
      "stateMutability": "view",
      "type": "function"
    },
    {
      "inputs": [
        {
          "internalType": "string",
          "name": "_ipfsHash",
          "type": "string"
        },
        {
          "internalType": "string",
          "name": "_fileName",
          "type": "string"
        },
        {
          "internalType": "bool",
          "name": "_isPrivate",
          "type": "bool"
        },
        {
          "internalType": "string",
          "name": "_fileType",
          "type": "string"
        },
        {
          "internalType": "uint256",
          "name": "_fileSize",
          "type": "uint256"
        }
      ],
      "name": "uploadDocument",
      "outputs": [],
      "stateMutability": "nonpayable",
      "type": "function"
    }
  ],
  "bytecode": "0x608060405234801561001057600080fd5b50611131806100206000396000f3fe608060405234801561001057600080fd5b50600436106100365760003560e01c8063855f83491461003b578063b463851614610057575b600080fd5b610055600480360381019061005091906108a5565b61007a565b005b61005f6101e9565b60405161007196959493929190610c31565b60405180910390f35b60006040518060c0016040528087815260200186815260200142815260200185151581526020018481526020018381525090506000803373ffffffffffffffffffffffffffffffffffffffff1673ffffffffffffffffffffffffffffffffffffffff168152602001908152602001600020819080600181540180825580915050600190039060005260206000209060060201600090919091909150600082015181600001908161012a9190610ec8565b5060208201518160010190816101409190610ec8565b506040820151816002015560608201518160030160006101000a81548160ff02191690831515021790555060808201518160040190816101809190610ec8565b5060a0820151816005015550503373ffffffffffffffffffffffffffffffffffffffff167f58cc0549db4cc0a6c9e88f0315e7d6b1679ef30ce771ef450d36198e31fade48878787426040516101d99493929190611002565b60405180910390a2505050505050565b60608060608060608060008060003373ffffffffffffffffffffffffffffffffffffffff1673ffffffffffffffffffffffffffffffffffffffff16815260200190815260200160002090506000818054905090508067ffffffffffffffff8111156102575761025661070c565b5b60405190808252806020026020018201604052801561028a57816020015b60608152602001906001900390816102755790505b5097508067ffffffffffffffff8111156102a7576102a661070c565b5b6040519080825280602002602001820160405280156102da57816020015b60608152602001906001900390816102c55790505b5096508067ffffffffffffffff8111156102f7576102f661070c565b5b6040519080825280602002602001820160405280156103255781602001602082028036833780820191505090505b5095508067ffffffffffffffff8111156103425761034161070c565b5b6040519080825280602002602001820160405280156103705781602001602082028036833780820191505090505b5094508067ffffffffffffffff81111561038d5761038c61070c565b5b6040519080825280602002602001820160405280156103c057816020015b60608152602001906001900390816103ab5790505b5093508067ffffffffffffffff8111156103dd576103dc61070c565b5b60405190808252806020026020018201604052801561040b5781602001602082028036833780820191505090505b50925060005b818110156106d257600083828154811061042e5761042d611055565b5b9060005260206000209060060201905080600001805461044d90610ceb565b80601f016020809104026020016040519081016040528092919081815260200182805461047990610ceb565b80156104c65780601f1061049b576101008083540402835291602001916104c6565b820191906000526020600020905b8154815290600101906020018083116104a957829003601f168201915b50505050508a83815181106104de576104dd611055565b5b60200260200101819052508060010180546104f890610ceb565b80601f016020809104026020016040519081016040528092919081815260200182805461052490610ceb565b80156105715780601f1061054657610100808354040283529160200191610571565b820191906000526020600020905b81548152906001019060200180831161055457829003601f168201915b505050505089838151811061058957610588611055565b5b60200260200101819052508060030160009054906101000a900460ff168883815181106105b9576105b8611055565b5b60200260200101901515908115158152505080600201548783815181106105e3576105e2611055565b5b6020026020010181815250508060040180546105fe90610ceb565b80601f016020809104026020016040519081016040528092919081815260200182805461062a90610ceb565b80156106775780601f1061064c57610100808354040283529160200191610677565b820191906000526020600020905b81548152906001019060200180831161065a57829003601f168201915b505050505086838151811061068f5761068e611055565b5b602002602001018190525080600501548583815181106106b2576106b1611055565b5b6020026020010181815250505080806106ca906110b3565b915050610411565b505050909192939495565b6000604051905090565b600080fd5b600080fd5b600080fd5b600080fd5b6000601f19601f8301169050919050565b7f4e487b7100000000000000000000000000000000000000000000000000000000600052604160045260246000fd5b610744826106fb565b810181811067ffffffffffffffff821117156107635761076261070c565b5b80604052505050565b60006107766106dd565b9050610782828261073b565b919050565b600067ffffffffffffffff8211156107a2576107a161070c565b5b6107ab826106fb565b9050602081019050919050565b82818337600083830152505050565b60006107da6107d584610787565b61076c565b9050828152602081018484840111156107f6576107f56106f6565b5b6108018482856107b8565b509392505050565b600082601f83011261081e5761081d6106f1565b5b813561082e8482602086016107c7565b91505092915050565b60008115159050919050565b61084c81610837565b811461085757600080fd5b50565b60008135905061086981610843565b92915050565b6000819050919050565b6108828161086f565b811461088d57600080fd5b50565b60008135905061089f81610879565b92915050565b600080600080600060a086880312156108c1576108c06106e7565b5b600086013567ffffffffffffffff8111156108df576108de6106ec565b5b6108eb88828901610809565b955050602086013567ffffffffffffffff81111561090c5761090b6106ec565b5b61091888828901610809565b94505060406109298882890161085a565b935050606086013567ffffffffffffffff81111561094a576109496106ec565b5b61095688828901610809565b925050608061096788828901610890565b9150509295509295909350565b600081519050919050565b600082825260208201905092915050565b6000819050602082019050919050565b600081519050919050565b600082825260208201905092915050565b60005b838110156109da5780820151818401526020810190506109bf565b60008484015250505050565b60006109f1826109a0565b6109fb81856109ab565b9350610a0b8185602086016109bc565b610a14816106fb565b840191505092915050565b6000610a2b83836109e6565b905092915050565b6000602082019050919050565b6000610a4b82610974565b610a55818561097f565b935083602082028501610a6785610990565b8060005b85811015610aa35784840389528151610a848582610a1f565b9450610a8f83610a33565b925060208a01995050600181019050610a6b565b50829750879550505050505092915050565b600081519050919050565b600082825260208201905092915050565b6000819050602082019050919050565b610aea81610837565b82525050565b6000610afc8383610ae1565b60208301905092915050565b6000602082019050919050565b6000610b2082610ab5565b610b2a8185610ac0565b9350610b3583610ad1565b8060005b83811015610b66578151610b4d8882610af0565b9750610b5883610b08565b925050600181019050610b39565b5085935050505092915050565b600081519050919050565b600082825260208201905092915050565b6000819050602082019050919050565b610ba88161086f565b82525050565b6000610bba8383610b9f565b60208301905092915050565b6000602082019050919050565b6000610bde82610b73565b610be88185610b7e565b9350610bf383610b8f565b8060005b83811015610c24578151610c0b8882610bae565b9750610c1683610bc6565b925050600181019050610bf7565b5085935050505092915050565b600060c0820190508181036000830152610c4b8189610a40565b90508181036020830152610c5f8188610a40565b90508181036040830152610c738187610b15565b90508181036060830152610c878186610bd3565b90508181036080830152610c9b8185610a40565b905081810360a0830152610caf8184610bd3565b9050979650505050505050565b7f4e487b7100000000000000000000000000000000000000000000000000000000600052602260045260246000fd5b60006002820490506001821680610d0357607f821691505b602082108103610d1657610d15610cbc565b5b50919050565b60008190508160005260206000209050919050565b60006020601f8301049050919050565b600082821b905092915050565b600060088302610d7e7fffffffffffffffffffffffffffffffffffffffffffffffffffffffffffffffff82610d41565b610d888683610d41565b95508019841693508086168417925050509392505050565b6000819050919050565b6000610dc5610dc0610dbb8461086f565b610da0565b61086f565b9050919050565b6000819050919050565b610ddf83610daa565b610df3610deb82610dcc565b848454610d4e565b825550505050565b600090565b610e08610dfb565b610e13818484610dd6565b505050565b5b81811015610e3757610e2c600082610e00565b600181019050610e19565b5050565b601f821115610e7c57610e4d81610d1c565b610e5684610d31565b81016020851015610e65578190505b610e79610e7185610d31565b830182610e18565b50505b505050565b600082821c905092915050565b6000610e9f60001984600802610e81565b1980831691505092915050565b6000610eb88383610e8e565b9150826002028217905092915050565b610ed1826109a0565b67ffffffffffffffff811115610eea57610ee961070c565b5b610ef48254610ceb565b610eff828285610e3b565b600060209050601f831160018114610f325760008415610f20578287015190505b610f2a8582610eac565b865550610f92565b601f198416610f4086610d1c565b60005b82811015610f6857848901518255600182019150602085019450602081019050610f43565b86831015610f855784890151610f81601f891682610e8e565b8355505b6001600288020188555050505b505050505050565b600082825260208201905092915050565b6000610fb6826109a0565b610fc08185610f9a565b9350610fd08185602086016109bc565b610fd9816106fb565b840191505092915050565b610fed81610837565b82525050565b610ffc8161086f565b82525050565b6000608082019050818103600083015261101c8187610fab565b905081810360208301526110308186610fab565b905061103f6040830185610fe4565b61104c6060830184610ff3565b95945050505050565b7f4e487b7100000000000000000000000000000000000000000000000000000000600052603260045260246000fd5b7f4e487b7100000000000000000000000000000000000000000000000000000000600052601160045260246000fd5b60006110be8261086f565b91507fffffffffffffffffffffffffffffffffffffffffffffffffffffffffffffffff82036110f0576110ef611084565b5b60018201905091905056fea2646970667358221220871ca25289cc6cfd3c10daf74a60981877dc22f26f169def1dcd309a5b189ed864736f6c63430008130033",
  "linkReferences": {},
  "deployedLinkReferences": {}
}